{
  "contractName": "FlightSuretyApp",
  "abi": [
    {
      "inputs": [
        {
          "name": "dataContract",
          "type": "address"
        }
      ],
      "payable": false,
      "stateMutability": "nonpayable",
      "type": "constructor",
      "signature": "constructor"
    },
    {
      "constant": false,
      "inputs": [],
      "name": "getRegistrationCount",
      "outputs": [
        {
          "name": "",
          "type": "uint256"
        }
      ],
      "payable": false,
      "stateMutability": "nonpayable",
      "type": "function",
      "signature": "0x59bfaee1"
    },
    {
      "constant": false,
      "inputs": [
        {
          "name": "addressToCheck",
          "type": "address"
        }
      ],
      "name": "isRegisterAirline",
      "outputs": [
        {
          "name": "registered",
          "type": "bool"
        },
        {
          "name": "hasPaid",
          "type": "bool"
        },
        {
          "name": "votes",
          "type": "uint256"
        }
      ],
      "payable": false,
      "stateMutability": "nonpayable",
      "type": "function",
      "signature": "0xcd4ccfdb"
    },
    {
      "constant": false,
      "inputs": [
        {
          "name": "addressToCheck",
          "type": "address"
        }
      ],
      "name": "isInQue",
      "outputs": [
        {
          "name": "",
          "type": "bool"
        }
      ],
      "payable": false,
      "stateMutability": "nonpayable",
      "type": "function",
      "signature": "0xacd7130e"
    },
    {
      "constant": false,
      "inputs": [],
      "name": "addAddressToRegistationQue",
      "outputs": [],
      "payable": false,
      "stateMutability": "nonpayable",
      "type": "function",
      "signature": "0x0828806a"
    },
    {
      "constant": false,
      "inputs": [
        {
          "name": "addressToPromote",
          "type": "address"
        }
      ],
      "name": "promoteAddressFromRegistration",
      "outputs": [],
      "payable": false,
      "stateMutability": "nonpayable",
      "type": "function",
      "signature": "0x51edbfed"
    },
    {
      "constant": false,
      "inputs": [],
      "name": "payRegistrationFee",
      "outputs": [],
      "payable": true,
      "stateMutability": "payable",
      "type": "function",
      "signature": "0x2432c0f1"
    }
  ],
  "bytecode": "0x608060405234801561001057600080fd5b506040516020806111538339810180604052810190808051906020019092919050505033600160006101000a81548173ffffffffffffffffffffffffffffffffffffffff021916908373ffffffffffffffffffffffffffffffffffffffff160217905550806000806101000a81548173ffffffffffffffffffffffffffffffffffffffff021916908373ffffffffffffffffffffffffffffffffffffffff1602179055505061108f806100c46000396000f300608060405260043610610078576000357c0100000000000000000000000000000000000000000000000000000000900463ffffffff1680630828806a1461007d5780632432c0f11461009457806351edbfed1461009e57806359bfaee1146100e1578063acd7130e1461010c578063cd4ccfdb14610167575b600080fd5b34801561008957600080fd5b506100926101d4565b005b61009c610444565b005b3480156100aa57600080fd5b506100df600480360381019080803573ffffffffffffffffffffffffffffffffffffffff1690602001909291905050506105f7565b005b3480156100ed57600080fd5b506100f6610d7f565b6040518082815260200191505060405180910390f35b34801561011857600080fd5b5061014d600480360381019080803573ffffffffffffffffffffffffffffffffffffffff169060200190929190505050610e46565b604051808215151515815260200191505060405180910390f35b34801561017357600080fd5b506101a8600480360381019080803573ffffffffffffffffffffffffffffffffffffffff169060200190929190505050610f46565b604051808415151515815260200183151515158152602001828152602001935050505060405180910390f35b33600015156000809054906101000a900473ffffffffffffffffffffffffffffffffffffffff1673ffffffffffffffffffffffffffffffffffffffff1663acd7130e836040518263ffffffff167c0100000000000000000000000000000000000000000000000000000000028152600401808273ffffffffffffffffffffffffffffffffffffffff1673ffffffffffffffffffffffffffffffffffffffff168152602001915050602060405180830381600087803b15801561029557600080fd5b505af11580156102a9573d6000803e3d6000fd5b505050506040513d60208110156102bf57600080fd5b8101908080519060200190929190505050151514151561036d576040517f08c379a00000000000000000000000000000000000000000000000000000000081526004018080602001828103825260268152602001807f4164647265737320697320616c726561647920696e207265676973747261746981526020017f6f6e20717565000000000000000000000000000000000000000000000000000081525060400191505060405180910390fd5b6000809054906101000a900473ffffffffffffffffffffffffffffffffffffffff1673ffffffffffffffffffffffffffffffffffffffff1663c7d3a7c9336040518263ffffffff167c0100000000000000000000000000000000000000000000000000000000028152600401808273ffffffffffffffffffffffffffffffffffffffff1673ffffffffffffffffffffffffffffffffffffffff168152602001915050600060405180830381600087803b15801561042957600080fd5b505af115801561043d573d6000803e3d6000fd5b5050505050565b678ac7230489e800008034101515156104c5576040517f08c379a000000000000000000000000000000000000000000000000000000000815260040180806020018281038252600c8152602001807f506179536f6d65206d6f7265000000000000000000000000000000000000000081525060200191505060405180910390fd5b678ac7230489e8000033600082340390508173ffffffffffffffffffffffffffffffffffffffff166108fc829081150290604051600060405180830381858888f1935050505015801561051c573d6000803e3d6000fd5b506000809054906101000a900473ffffffffffffffffffffffffffffffffffffffff1673ffffffffffffffffffffffffffffffffffffffff166331d8050f336040518263ffffffff167c0100000000000000000000000000000000000000000000000000000000028152600401808273ffffffffffffffffffffffffffffffffffffffff1673ffffffffffffffffffffffffffffffffffffffff168152602001915050600060405180830381600087803b1580156105d957600080fd5b505af11580156105ed573d6000803e3d6000fd5b5050505050505050565b6000806000803360008060008060009054906101000a900473ffffffffffffffffffffffffffffffffffffffff1673ffffffffffffffffffffffffffffffffffffffff1663cd4ccfdb856040518263ffffffff167c0100000000000000000000000000000000000000000000000000000000028152600401808273ffffffffffffffffffffffffffffffffffffffff1673ffffffffffffffffffffffffffffffffffffffff168152602001915050606060405180830381600087803b1580156106bf57600080fd5b505af11580156106d3573d6000803e3d6000fd5b505050506040513d60608110156106e957600080fd5b8101908080519060200190929190805190602001909291908051906020019092919050505092509250925060011515831515141515610790576040517f08c379a00000000000000000000000000000000000000000000000000000000081526004018080602001828103825260188152602001807f53656e646572206973206e6f742072656769737465726564000000000000000081525060200191505060405180910390fd5b60011515821515141515610832576040517f08c379a00000000000000000000000000000000000000000000000000000000081526004018080602001828103825260248152602001807f53656e64657220686173206e6f74207061696420726567697374726174696f6e81526020017f206665650000000000000000000000000000000000000000000000000000000081525060400191505060405180910390fd5b60046000809054906101000a900473ffffffffffffffffffffffffffffffffffffffff1673ffffffffffffffffffffffffffffffffffffffff166359bfaee16040518163ffffffff167c0100000000000000000000000000000000000000000000000000000000028152600401602060405180830381600087803b1580156108b957600080fd5b505af11580156108cd573d6000803e3d6000fd5b505050506040513d60208110156108e357600080fd5b81019080805190602001909291905050501115156109e1576000809054906101000a900473ffffffffffffffffffffffffffffffffffffffff1673ffffffffffffffffffffffffffffffffffffffff1663b0cd517c8a60016040518363ffffffff167c0100000000000000000000000000000000000000000000000000000000028152600401808373ffffffffffffffffffffffffffffffffffffffff1673ffffffffffffffffffffffffffffffffffffffff1681526020018215151515815260200192505050600060405180830381600087803b1580156109c457600080fd5b505af11580156109d8573d6000803e3d6000fd5b50505050610d74565b6000809054906101000a900473ffffffffffffffffffffffffffffffffffffffff1673ffffffffffffffffffffffffffffffffffffffff16636cea0e468a6040518263ffffffff167c0100000000000000000000000000000000000000000000000000000000028152600401808273ffffffffffffffffffffffffffffffffffffffff1673ffffffffffffffffffffffffffffffffffffffff168152602001915050600060405180830381600087803b158015610a9d57600080fd5b505af1158015610ab1573d6000803e3d6000fd5b505050506000809054906101000a900473ffffffffffffffffffffffffffffffffffffffff1673ffffffffffffffffffffffffffffffffffffffff166376a563b56040518163ffffffff167c0100000000000000000000000000000000000000000000000000000000028152600401602060405180830381600087803b158015610b3a57600080fd5b505af1158015610b4e573d6000803e3d6000fd5b505050506040513d6020811015610b6457600080fd5b810190808051906020019092919050505097506000809054906101000a900473ffffffffffffffffffffffffffffffffffffffff1673ffffffffffffffffffffffffffffffffffffffff1663cd4ccfdb336040518263ffffffff167c0100000000000000000000000000000000000000000000000000000000028152600401808273ffffffffffffffffffffffffffffffffffffffff1673ffffffffffffffffffffffffffffffffffffffff168152602001915050606060405180830381600087803b158015610c3357600080fd5b505af1158015610c47573d6000803e3d6000fd5b505050506040513d6060811015610c5d57600080fd5b810190808051906020019092919080519060200190929190805190602001909291905050509650965096508488101515610d73576000809054906101000a900473ffffffffffffffffffffffffffffffffffffffff1673ffffffffffffffffffffffffffffffffffffffff1663b0cd517c3360016040518363ffffffff167c0100000000000000000000000000000000000000000000000000000000028152600401808373ffffffffffffffffffffffffffffffffffffffff1673ffffffffffffffffffffffffffffffffffffffff1681526020018215151515815260200192505050600060405180830381600087803b158015610d5a57600080fd5b505af1158015610d6e573d6000803e3d6000fd5b505050505b5b505050505050505050565b60008060009054906101000a900473ffffffffffffffffffffffffffffffffffffffff1673ffffffffffffffffffffffffffffffffffffffff166359bfaee16040518163ffffffff167c0100000000000000000000000000000000000000000000000000000000028152600401602060405180830381600087803b158015610e0657600080fd5b505af1158015610e1a573d6000803e3d6000fd5b505050506040513d6020811015610e3057600080fd5b8101908080519060200190929190505050905090565b60008060009054906101000a900473ffffffffffffffffffffffffffffffffffffffff1673ffffffffffffffffffffffffffffffffffffffff1663acd7130e836040518263ffffffff167c0100000000000000000000000000000000000000000000000000000000028152600401808273ffffffffffffffffffffffffffffffffffffffff1673ffffffffffffffffffffffffffffffffffffffff168152602001915050602060405180830381600087803b158015610f0457600080fd5b505af1158015610f18573d6000803e3d6000fd5b505050506040513d6020811015610f2e57600080fd5b81019080805190602001909291905050509050919050565b60008060008060009054906101000a900473ffffffffffffffffffffffffffffffffffffffff1673ffffffffffffffffffffffffffffffffffffffff1663cd4ccfdb856040518263ffffffff167c0100000000000000000000000000000000000000000000000000000000028152600401808273ffffffffffffffffffffffffffffffffffffffff1673ffffffffffffffffffffffffffffffffffffffff168152602001915050606060405180830381600087803b15801561100757600080fd5b505af115801561101b573d6000803e3d6000fd5b505050506040513d606081101561103157600080fd5b8101908080519060200190929190805190602001909291908051906020019092919050505092509250925091939092505600a165627a7a72305820ee41096b4bf3065beb314c1cf302156d93cae7ad3dbcafc181e65e64154ef19e0029",
  "source": "pragma solidity ^0.4.25;\n\n// It's important to avoid vulnerabilities due to numeric overflow bugs\n// OpenZeppelin's SafeMath library, when used correctly, protects agains such bugs\n// More info: https://www.nccgroup.trust/us/about-us/newsroom-and-events/blog/2018/november/smart-contract-insecurity-bad-arithmetic/\n\nimport \"../node_modules/openzeppelin-solidity/contracts/math/SafeMath.sol\";\n\n/************************************************** */\n/* FlightSurety Smart Contract                      */\n/************************************************** */\ncontract FlightSuretyApp {\n    using SafeMath for uint256; // Allow SafeMath functions to be called for all uint256 types (similar to \"prototype\" in Javascript)\n\n    FlightSuretyData flightSuretyData;\n    // Flight status codees\n    uint8 private constant STATUS_CODE_UNKNOWN = 0;\n    uint8 private constant STATUS_CODE_ON_TIME = 10;\n    uint8 private constant STATUS_CODE_LATE_AIRLINE = 20;\n    uint8 private constant STATUS_CODE_LATE_WEATHER = 30;\n    uint8 private constant STATUS_CODE_LATE_TECHNICAL = 40;\n    uint8 private constant STATUS_CODE_LATE_OTHER = 50;\n\n    address private contractOwner;\n\n    struct Flight {\n        bool isRegistered;\n        uint8 statusCode;\n        uint256 updatedTimestamp;\n        address airline;\n    }\n    mapping(bytes32 => Flight) private flights;\n\n    modifier requireContractOwner()\n    {\n        require(msg.sender == contractOwner, \"Caller is not contract owner\");\n        _;\n    }\n\n    modifier requireRegisteredUser(address addressToCheck)\n      {\n        // check if address is in registerQue mapping\n        (bool registered, bool haspaid, uint256 votes) = flightSuretyData.isRegisterAirline(addressToCheck);\n        require(registered == true, \"Sender is not registered\");\n        require(haspaid == true,\"Sender has not paid registration fee\");\n        _;\n      }\n\n    modifier isAlreadyRegistered(address addressToCheck)\n      {\n        // add mapping to verify addrress\n        require(flightSuretyData.isInQue(addressToCheck) == false, \"Address is already in registration que\");\n        _;\n      }\n\n      // Define a modifier that checks if the paid amount is sufficient to cover the price\n      modifier paidEnough(uint _price)\n      {\n        require(msg.value >= _price, \"PaySome more\");\n        _;\n      }\n\n      // Define a modifier that checks the price and refunds the remaining balance\n      modifier checkValue(uint _price, address addressToFund)\n      {\n        uint  amountToReturn = msg.value - _price;\n        addressToFund.transfer(amountToReturn);\n        _;\n      }\n\n    constructor(address dataContract) public\n    {\n        contractOwner = msg.sender;\n        flightSuretyData = FlightSuretyData(dataContract);\n    }\n\n/*********TOOLS**************/\n    function getRegistrationCount() external returns(uint256)\n    {\n      return flightSuretyData.getRegistrationCount();\n    }\n\n\n     function isRegisterAirline(address addressToCheck) external returns(bool registered,bool hasPaid, uint256 votes)\n     {\n        return flightSuretyData.isRegisterAirline(addressToCheck);\n     }\n\n     function isInQue(address addressToCheck) external returns(bool)\n     {\n       return flightSuretyData.isInQue(addressToCheck);\n     }\n\n/*********Functions**************/\n    function addAddressToRegistationQue() external\n    // check if contract is operational\n    // check if msg.sender is aleardy in Que\n    isAlreadyRegistered(msg.sender)\n    {\n      flightSuretyData.addAddressToRegistationQue(msg.sender);\n    }\n\n    function promoteAddressFromRegistration(address addressToPromote) external\n    // check if contract is operational\n    requireRegisteredUser(msg.sender)\n    {\n      if (flightSuretyData.getRegistrationCount() <= 4){\n        flightSuretyData.changeRegisteration(addressToPromote,true);\n      }else{\n        flightSuretyData.addVote(addressToPromote);\n        uint256 consieses = flightSuretyData.getCurrentConsieses();\n        (bool registered, bool haspaid, uint256 votes) = flightSuretyData.isRegisterAirline(msg.sender);\n        if (consieses >= votes){\n          flightSuretyData.changeRegisteration(msg.sender,true);\n          }\n        }\n    }\n\n\n  function payRegistrationFee() external payable\n    paidEnough(10 ether)\n    checkValue(10 ether,msg.sender)\n    {\n      flightSuretyData.payRegistrationFee(msg.sender);\n    }\n\n\n\n}\n\ncontract FlightSuretyData {\n\n  function isInQue(address addressToCheck) external returns(bool);\n  function getRegistrationCount() external returns(uint256);\n  function addAddressToRegistationQue(address addressToMap) external;\n  function isRegisterAirline(address addressToCheck) external returns(bool registered,bool hasPaid, uint256 votes);\n  function changeRegisteration(address addressToRegister, bool registrationState);\n  function addVote(address addressToPromote);\n  function getCurrentConsieses() returns(uint256);\n  function payRegistrationFee(address addressThatPaid) payable;\n}\n",
  "sourcePath": "/Users/mitch/Desktop/BlockChain/FlightSurety/contracts/FlightSuretyApp.sol",
  "compiler": {
    "name": "solc",
    "version": "0.4.26+commit.4563c3fc.Emscripten.clang"
  },
  "schemaVersion": "3.0.8",
  "updatedAt": "2019-06-03T23:13:21.997Z",
  "devdoc": {
    "methods": {}
  },
  "userdoc": {
    "methods": {
      "addAddressToRegistationQue()": {
        "notice": "*******Functions*************"
      },
      "getRegistrationCount()": {
        "notice": "*******TOOLS*************"
      }
    }
  }
}