{
  "contractName": "FlightSuretyData",
  "abi": [
    {
      "inputs": [],
      "payable": false,
      "stateMutability": "nonpayable",
      "type": "constructor",
      "signature": "constructor"
    },
    {
      "constant": false,
      "inputs": [
        {
          "name": "addressToCheck",
          "type": "address"
        }
      ],
      "name": "isInQue",
      "outputs": [
        {
          "name": "",
          "type": "bool"
        }
      ],
      "payable": false,
      "stateMutability": "nonpayable",
      "type": "function",
      "signature": "0xacd7130e"
    },
    {
      "constant": false,
      "inputs": [],
      "name": "getRegistrationCount",
      "outputs": [
        {
          "name": "",
          "type": "uint256"
        }
      ],
      "payable": false,
      "stateMutability": "nonpayable",
      "type": "function",
      "signature": "0x59bfaee1"
    },
    {
      "constant": false,
      "inputs": [
        {
          "name": "addressToCheck",
          "type": "address"
        }
      ],
      "name": "isRegisterAirline",
      "outputs": [
        {
          "name": "registered",
          "type": "bool"
        },
        {
          "name": "hasPaid",
          "type": "bool"
        },
        {
          "name": "votes",
          "type": "uint256"
        }
      ],
      "payable": false,
      "stateMutability": "nonpayable",
      "type": "function",
      "signature": "0xcd4ccfdb"
    },
    {
      "constant": false,
      "inputs": [],
      "name": "getCurrentConsieses",
      "outputs": [
        {
          "name": "",
          "type": "uint256"
        }
      ],
      "payable": false,
      "stateMutability": "nonpayable",
      "type": "function",
      "signature": "0x76a563b5"
    },
    {
      "constant": false,
      "inputs": [
        {
          "name": "addressToMap",
          "type": "address"
        }
      ],
      "name": "addAddressToRegistationQue",
      "outputs": [],
      "payable": false,
      "stateMutability": "nonpayable",
      "type": "function",
      "signature": "0xc7d3a7c9"
    },
    {
      "constant": false,
      "inputs": [
        {
          "name": "addressToRegister",
          "type": "address"
        },
        {
          "name": "registrationState",
          "type": "bool"
        }
      ],
      "name": "changeRegisteration",
      "outputs": [],
      "payable": false,
      "stateMutability": "nonpayable",
      "type": "function",
      "signature": "0xb0cd517c"
    },
    {
      "constant": false,
      "inputs": [
        {
          "name": "addressToPromote",
          "type": "address"
        }
      ],
      "name": "addVote",
      "outputs": [],
      "payable": false,
      "stateMutability": "nonpayable",
      "type": "function",
      "signature": "0x6cea0e46"
    },
    {
      "constant": false,
      "inputs": [
        {
          "name": "addressThatPaid",
          "type": "address"
        }
      ],
      "name": "payRegistrationFee",
      "outputs": [],
      "payable": true,
      "stateMutability": "payable",
      "type": "function",
      "signature": "0x31d8050f"
    }
  ],
  "bytecode": "0x60806040526001600060146101000a81548160ff021916908315150217905550600060015534801561003057600080fd5b506000336000806101000a81548173ffffffffffffffffffffffffffffffffffffffff021916908373ffffffffffffffffffffffffffffffffffffffff1602179055506001600360003373ffffffffffffffffffffffffffffffffffffffff1673ffffffffffffffffffffffffffffffffffffffff16815260200190815260200160002060006101000a81548160ff02191690831515021790555060018160000160006101000a81548160ff02191690831515021790555060018160000160016101000a81548160ff0219169083151502179055506000816001018190555080600260003373ffffffffffffffffffffffffffffffffffffffff1673ffffffffffffffffffffffffffffffffffffffff1681526020019081526020016000206000820160009054906101000a900460ff168160000160006101000a81548160ff0219169083151502179055506000820160019054906101000a900460ff168160000160016101000a81548160ff02191690831515021790555060018201548160010155905050506106fc806101c66000396000f30060806040526004361061008e576000357c0100000000000000000000000000000000000000000000000000000000900463ffffffff16806331d8050f1461009357806359bfaee1146100c95780636cea0e46146100f457806376a563b514610137578063acd7130e14610162578063b0cd517c146101bd578063c7d3a7c91461020c578063cd4ccfdb1461024f575b600080fd5b6100c7600480360381019080803573ffffffffffffffffffffffffffffffffffffffff1690602001909291905050506102bc565b005b3480156100d557600080fd5b506100de610382565b6040518082815260200191505060405180910390f35b34801561010057600080fd5b50610135600480360381019080803573ffffffffffffffffffffffffffffffffffffffff16906020019092919050505061038c565b005b34801561014357600080fd5b5061014c6103e6565b6040518082815260200191505060405180910390f35b34801561016e57600080fd5b506101a3600480360381019080803573ffffffffffffffffffffffffffffffffffffffff169060200190929190505050610408565b604051808215151515815260200191505060405180910390f35b3480156101c957600080fd5b5061020a600480360381019080803573ffffffffffffffffffffffffffffffffffffffff169060200190929190803515159060200190929190505050610463565b005b34801561021857600080fd5b5061024d600480360381019080803573ffffffffffffffffffffffffffffffffffffffff1690602001909291905050506104d7565b005b34801561025b57600080fd5b50610290600480360381019080803573ffffffffffffffffffffffffffffffffffffffff169060200190929190505050610620565b604051808415151515815260200183151515158152602001828152602001935050505060405180910390f35b6000809054906101000a900473ffffffffffffffffffffffffffffffffffffffff1673ffffffffffffffffffffffffffffffffffffffff166108fc349081150290604051600060405180830381858888f19350505050158015610323573d6000803e3d6000fd5b506001600260008373ffffffffffffffffffffffffffffffffffffffff1673ffffffffffffffffffffffffffffffffffffffff16815260200190815260200160002060000160016101000a81548160ff02191690831515021790555050565b6000600154905090565b6103e26001600260008473ffffffffffffffffffffffffffffffffffffffff1673ffffffffffffffffffffffffffffffffffffffff1681526020019081526020016000206001015461069e90919063ffffffff16565b5050565b6000806103ff60026001546106ba90919063ffffffff16565b90508091505090565b600080600360008473ffffffffffffffffffffffffffffffffffffffff1673ffffffffffffffffffffffffffffffffffffffff16815260200190815260200160002060009054906101000a900460ff16905080915050919050565b80600260008473ffffffffffffffffffffffffffffffffffffffff1673ffffffffffffffffffffffffffffffffffffffff16815260200190815260200160002060000160006101000a81548160ff0219169083151502179055506104d26001805461069e90919063ffffffff16565b505050565b60006001600360008473ffffffffffffffffffffffffffffffffffffffff1673ffffffffffffffffffffffffffffffffffffffff16815260200190815260200160002060006101000a81548160ff02191690831515021790555060008160000160006101000a81548160ff02191690831515021790555060008160000160016101000a81548160ff0219169083151502179055506000816001018190555080600260008473ffffffffffffffffffffffffffffffffffffffff1673ffffffffffffffffffffffffffffffffffffffff1681526020019081526020016000206000820160009054906101000a900460ff168160000160006101000a81548160ff0219169083151502179055506000820160019054906101000a900460ff168160000160016101000a81548160ff021916908315150217905550600182015481600101559050505050565b600080600080600260008673ffffffffffffffffffffffffffffffffffffffff1673ffffffffffffffffffffffffffffffffffffffff16815260200190815260200160002090508060000160009054906101000a900460ff168160000160019054906101000a900460ff168260010154935093509350509193909250565b600081830190508281101515156106b157fe5b80905092915050565b600081838115156106c757fe5b049050929150505600a165627a7a723058208fe8b62fd7698de9ecab2e80c9366b2a92c8b1451510b97debdc4f56d75b5cd80029",
  "source": "pragma solidity ^0.4.25;\n\nimport \"../node_modules/openzeppelin-solidity/contracts/math/SafeMath.sol\";\n\ncontract FlightSuretyData {\n    using SafeMath for uint256;\n\n    /********************************************************************************************/\n    /*                                       DATA VARIABLES                                     */\n    /********************************************************************************************/\n\n    address private contractOwner;                                      // Account used to deploy contract\n    bool private operational = true;                                    // Blocks all state changes throughout the contract if false\n    uint256 private registeredCount = 0;\n\n    struct airliner {\n      bool registered;\n      bool hasPaid;\n      uint256 votes;\n    }\n\n    mapping(address => airliner) private registerQue;\n    mapping(address => bool) private isInRegisterQue;\n\n  constructor() public\n    {\n\n        contractOwner = msg.sender;\n        isInRegisterQue[msg.sender] = true;\n        airliner NewAirline;\n        NewAirline.registered = true;\n        NewAirline.hasPaid = true;\n        NewAirline.votes = 0;\n        registerQue[msg.sender] = NewAirline;\n\n    }\n\n\n\n  function isInQue(address addressToCheck) external returns(bool)\n  {\n    bool addressFetched = isInRegisterQue[addressToCheck];\n    return (addressFetched);\n  }\n\n  function getRegistrationCount() external returns(uint256)\n    {\n      return registeredCount;\n    }\n\n  function isRegisterAirline(address addressToCheck) external returns (bool registered,bool hasPaid ,uint256 votes)\n    {\n      airliner addressFetched = registerQue[addressToCheck];\n      return (addressFetched.registered,addressFetched.hasPaid,addressFetched.votes);\n    }\n\n  function getCurrentConsieses() external returns (uint256)\n  {\n    uint256 consieses = registeredCount.div(2);\n    return (consieses);\n  }\n\n\n/****contract functions*****/\n  function addAddressToRegistationQue(address addressToMap) external\n    // Check if contract is operational\n    {\n      // build new data object\n      isInRegisterQue[addressToMap] = true;\n      airliner newAirline;\n      newAirline.registered = false;\n      newAirline.hasPaid = false;\n      newAirline.votes = 0;\n      registerQue[addressToMap] = newAirline;\n    }\n\n\n    function changeRegisteration(address addressToRegister,bool registrationState) external\n    // check if caller is FlightApp\n    {\n      registerQue[addressToRegister].registered = registrationState;\n      registeredCount.add(1);\n    }\n\n    function addVote(address addressToPromote)\n    // check if caller id FlightApp\n    {\n      registerQue[addressToPromote].votes.add(1);\n    }\n\n    function payRegistrationFee(address addressThatPaid) payable\n    {\n      contractOwner.transfer(msg.value);\n      registerQue[addressThatPaid].hasPaid = true;\n    }\n\n}\n",
  "sourcePath": "/Users/mitch/Desktop/BlockChain/FlightSurety/contracts/FlightSuretyData.sol",
  "compiler": {
    "name": "solc",
    "version": "0.4.26+commit.4563c3fc.Emscripten.clang"
  },
  "schemaVersion": "3.0.8",
  "updatedAt": "2019-06-03T23:13:22.020Z",
  "devdoc": {
    "methods": {}
  },
  "userdoc": {
    "methods": {
      "addAddressToRegistationQue(address)": {
        "notice": "**contract functions****"
      }
    }
  }
}